{
  "_format": "hh-sol-artifact-1",
  "contractName": "ICO",
  "sourceName": "contracts/VendorMachineV1.sol",
  "abi": [
    {
      "inputs": [
        {
          "internalType": "address",
          "name": "SPIN_ADDRESS",
          "type": "address"
        }
      ],
      "stateMutability": "nonpayable",
      "type": "constructor"
    },
    {
      "anonymous": false,
      "inputs": [
        {
          "indexed": false,
          "internalType": "uint256",
          "name": "totalTokensSold",
          "type": "uint256"
        },
        {
          "indexed": false,
          "internalType": "uint256",
          "name": "totalEtherReceived",
          "type": "uint256"
        }
      ],
      "name": "ICOComplete",
      "type": "event"
    },
    {
      "anonymous": false,
      "inputs": [
        {
          "indexed": true,
          "internalType": "address",
          "name": "from",
          "type": "address"
        },
        {
          "indexed": true,
          "internalType": "address",
          "name": "to",
          "type": "address"
        },
        {
          "indexed": false,
          "internalType": "uint256",
          "name": "value",
          "type": "uint256"
        }
      ],
      "name": "Transfer",
      "type": "event"
    },
    {
      "inputs": [
        {
          "internalType": "address",
          "name": "",
          "type": "address"
        }
      ],
      "name": "balanceOf",
      "outputs": [
        {
          "internalType": "uint256",
          "name": "",
          "type": "uint256"
        }
      ],
      "stateMutability": "view",
      "type": "function"
    },
    {
      "inputs": [],
      "name": "spinBalanceBought",
      "outputs": [
        {
          "internalType": "uint256",
          "name": "",
          "type": "uint256"
        }
      ],
      "stateMutability": "view",
      "type": "function"
    },
    {
      "inputs": [],
      "name": "spinBalanceContract",
      "outputs": [
        {
          "internalType": "uint256",
          "name": "",
          "type": "uint256"
        }
      ],
      "stateMutability": "view",
      "type": "function"
    },
    {
      "inputs": [],
      "name": "spinBalanceSender",
      "outputs": [
        {
          "internalType": "uint256",
          "name": "",
          "type": "uint256"
        }
      ],
      "stateMutability": "view",
      "type": "function"
    },
    {
      "inputs": [
        {
          "internalType": "uint256",
          "name": "_numTokens",
          "type": "uint256"
        }
      ],
      "name": "spinBuyTokens",
      "outputs": [],
      "stateMutability": "payable",
      "type": "function"
    },
    {
      "inputs": [
        {
          "internalType": "uint256",
          "name": "_newPrice",
          "type": "uint256"
        }
      ],
      "name": "spinSetTokenPrice",
      "outputs": [],
      "stateMutability": "nonpayable",
      "type": "function"
    },
    {
      "stateMutability": "payable",
      "type": "receive"
    }
  ],
  "bytecode": "0x608060405234801561001057600080fd5b506040516106f03803806106f083398101604081905261002f9161006d565b60028054336001600160a01b03199182161790915566038d7ea4c68000600055600480549091166001600160a01b039290921691909117905561009d565b60006020828403121561007f57600080fd5b81516001600160a01b038116811461009657600080fd5b9392505050565b610644806100ac6000396000f3fe6080604052600436106100595760003560e01c8063527b66d81461006557806370a0823114610087578063859c6b63146100c65780639605ea85146100e8578063ce0ba3be146100fd578063e654d8451461011257600080fd5b3661006057005b600080fd5b34801561007157600080fd5b5061008561008036600461053d565b610125565b005b34801561009357600080fd5b506100b46100a2366004610556565b60036020526000908152604090205481565b60405190815260200160405180910390f35b3480156100d257600080fd5b50336000908152600360205260409020546100b4565b3480156100f457600080fd5b506100b4610141565b34801561010957600080fd5b506100b46101c8565b61008561012036600461053d565b6101fe565b6002546001600160a01b0316331461013c57600080fd5b600055565b600480546040516370a0823160e01b815230928101929092526000916001600160a01b03909116906370a08231906024015b60206040518083038186803b15801561018b57600080fd5b505afa15801561019f573d6000803e3d6000fd5b505050506040513d601f19601f820116820180604052508101906101c39190610586565b905090565b600480546040516370a0823160e01b815233928101929092526000916001600160a01b03909116906370a0823190602401610173565b8060005461020c91906105b5565b341461025f5760405162461bcd60e51b815260206004820152601860248201527f496e636f7272656374207061796d656e7420616d6f756e74000000000000000060448201526064015b60405180910390fd5b600480546040516370a0823160e01b815230928101929092526000916001600160a01b03909116906370a082319060240160206040518083038186803b1580156102a857600080fd5b505afa1580156102bc573d6000803e3d6000fd5b505050506040513d601f19601f820116820180604052508101906102e09190610586565b9050818110156103325760405162461bcd60e51b815260206004820152601f60248201527f496e73756666696369656e7420746f6b656e7320696e20636f6e7472616374006044820152606401610256565b816001600082825461034491906105d4565b90915550506004546001600160a01b031663095ea7b33361036d85670de0b6b3a76400006105b5565b6040516001600160e01b031960e085901b1681526001600160a01b0390921660048301526024820152604401602060405180830381600087803b1580156103b357600080fd5b505af11580156103c7573d6000803e3d6000fd5b505050506040513d601f19601f820116820180604052508101906103eb91906105ec565b61042f5760405162461bcd60e51b8152602060048201526015602482015274151bdad95b8808185c1c1c9bdd994819985a5b1959605a1b6044820152606401610256565b6004546001600160a01b031663a9059cbb3361045385670de0b6b3a76400006105b5565b6040516001600160e01b031960e085901b1681526001600160a01b0390921660048301526024820152604401602060405180830381600087803b15801561049957600080fd5b505af11580156104ad573d6000803e3d6000fd5b505050506040513d601f19601f820116820180604052508101906104d191906105ec565b6105155760405162461bcd60e51b8152602060048201526015602482015274151bdad95b881d1c985b9cd9995c8819985a5b1959605a1b6044820152606401610256565b33600090815260036020526040812080548492906105349084906105d4565b90915550505050565b60006020828403121561054f57600080fd5b5035919050565b60006020828403121561056857600080fd5b81356001600160a01b038116811461057f57600080fd5b9392505050565b60006020828403121561059857600080fd5b5051919050565b634e487b7160e01b600052601160045260246000fd5b60008160001904831182151516156105cf576105cf61059f565b500290565b600082198211156105e7576105e761059f565b500190565b6000602082840312156105fe57600080fd5b8151801515811461057f57600080fdfea26469706673582212200e8ff3eacde72e6962685f79b11fcb5bb3f2051c14507944ce8a73daa97108f464736f6c63430008090033",
  "linkReferences": {},
  "deployedLinkReferences": {}
}