{
  "_format": "hh-sol-artifact-1",
  "contractName": "VyriseV1",
  "sourceName": "contracts/VyriseV1.sol",
  "abi": [
    {
      "anonymous": false,
      "inputs": [
        {
          "indexed": true,
          "internalType": "address",
          "name": "owner",
          "type": "address"
        },
        {
          "indexed": true,
          "internalType": "address",
          "name": "spender",
          "type": "address"
        },
        {
          "indexed": false,
          "internalType": "uint256",
          "name": "value",
          "type": "uint256"
        }
      ],
      "name": "Approval",
      "type": "event"
    },
    {
      "anonymous": false,
      "inputs": [
        {
          "indexed": false,
          "internalType": "uint8",
          "name": "version",
          "type": "uint8"
        }
      ],
      "name": "Initialized",
      "type": "event"
    },
    {
      "anonymous": false,
      "inputs": [
        {
          "indexed": true,
          "internalType": "address",
          "name": "from",
          "type": "address"
        },
        {
          "indexed": true,
          "internalType": "address",
          "name": "to",
          "type": "address"
        },
        {
          "indexed": false,
          "internalType": "uint256",
          "name": "value",
          "type": "uint256"
        }
      ],
      "name": "Transfer",
      "type": "event"
    },
    {
      "inputs": [
        {
          "internalType": "address",
          "name": "owner",
          "type": "address"
        },
        {
          "internalType": "address",
          "name": "spender",
          "type": "address"
        }
      ],
      "name": "allowance",
      "outputs": [
        {
          "internalType": "uint256",
          "name": "",
          "type": "uint256"
        }
      ],
      "stateMutability": "view",
      "type": "function"
    },
    {
      "inputs": [
        {
          "internalType": "address",
          "name": "spender",
          "type": "address"
        },
        {
          "internalType": "uint256",
          "name": "amount",
          "type": "uint256"
        }
      ],
      "name": "approve",
      "outputs": [
        {
          "internalType": "bool",
          "name": "",
          "type": "bool"
        }
      ],
      "stateMutability": "nonpayable",
      "type": "function"
    },
    {
      "inputs": [
        {
          "internalType": "address",
          "name": "account",
          "type": "address"
        }
      ],
      "name": "balanceOf",
      "outputs": [
        {
          "internalType": "uint256",
          "name": "",
          "type": "uint256"
        }
      ],
      "stateMutability": "view",
      "type": "function"
    },
    {
      "inputs": [],
      "name": "decimals",
      "outputs": [
        {
          "internalType": "uint8",
          "name": "",
          "type": "uint8"
        }
      ],
      "stateMutability": "view",
      "type": "function"
    },
    {
      "inputs": [
        {
          "internalType": "address",
          "name": "spender",
          "type": "address"
        },
        {
          "internalType": "uint256",
          "name": "subtractedValue",
          "type": "uint256"
        }
      ],
      "name": "decreaseAllowance",
      "outputs": [
        {
          "internalType": "bool",
          "name": "",
          "type": "bool"
        }
      ],
      "stateMutability": "nonpayable",
      "type": "function"
    },
    {
      "inputs": [
        {
          "internalType": "address",
          "name": "spender",
          "type": "address"
        },
        {
          "internalType": "uint256",
          "name": "addedValue",
          "type": "uint256"
        }
      ],
      "name": "increaseAllowance",
      "outputs": [
        {
          "internalType": "bool",
          "name": "",
          "type": "bool"
        }
      ],
      "stateMutability": "nonpayable",
      "type": "function"
    },
    {
      "inputs": [
        {
          "internalType": "uint256",
          "name": "supply",
          "type": "uint256"
        }
      ],
      "name": "initialize",
      "outputs": [],
      "stateMutability": "nonpayable",
      "type": "function"
    },
    {
      "inputs": [],
      "name": "name",
      "outputs": [
        {
          "internalType": "string",
          "name": "",
          "type": "string"
        }
      ],
      "stateMutability": "view",
      "type": "function"
    },
    {
      "inputs": [],
      "name": "symbol",
      "outputs": [
        {
          "internalType": "string",
          "name": "",
          "type": "string"
        }
      ],
      "stateMutability": "view",
      "type": "function"
    },
    {
      "inputs": [],
      "name": "totalSupply",
      "outputs": [
        {
          "internalType": "uint256",
          "name": "",
          "type": "uint256"
        }
      ],
      "stateMutability": "view",
      "type": "function"
    },
    {
      "inputs": [
        {
          "internalType": "address",
          "name": "to",
          "type": "address"
        },
        {
          "internalType": "uint256",
          "name": "amount",
          "type": "uint256"
        }
      ],
      "name": "transfer",
      "outputs": [
        {
          "internalType": "bool",
          "name": "",
          "type": "bool"
        }
      ],
      "stateMutability": "nonpayable",
      "type": "function"
    },
    {
      "inputs": [
        {
          "internalType": "address",
          "name": "from",
          "type": "address"
        },
        {
          "internalType": "address",
          "name": "to",
          "type": "address"
        },
        {
          "internalType": "uint256",
          "name": "amount",
          "type": "uint256"
        }
      ],
      "name": "transferFrom",
      "outputs": [
        {
          "internalType": "bool",
          "name": "",
          "type": "bool"
        }
      ],
      "stateMutability": "nonpayable",
      "type": "function"
    }
  ],
  "bytecode": "0x608060405234801561001057600080fd5b50610d4a806100206000396000f3fe608060405234801561001057600080fd5b50600436106100b45760003560e01c806370a082311161007157806370a082311461014157806395d89b411461016a578063a457c2d714610172578063a9059cbb14610185578063dd62ed3e14610198578063fe4b84df146101ab57600080fd5b806306fdde03146100b9578063095ea7b3146100d757806318160ddd146100fa57806323b872dd1461010c578063313ce5671461011f578063395093511461012e575b600080fd5b6100c16101c0565b6040516100ce9190610a09565b60405180910390f35b6100ea6100e5366004610a7a565b610252565b60405190151581526020016100ce565b6035545b6040519081526020016100ce565b6100ea61011a366004610aa4565b61026c565b604051601281526020016100ce565b6100ea61013c366004610a7a565b610290565b6100fe61014f366004610ae0565b6001600160a01b031660009081526033602052604090205490565b6100c16102b2565b6100ea610180366004610a7a565b6102c1565b6100ea610193366004610a7a565b610341565b6100fe6101a6366004610b02565b61034f565b6101be6101b9366004610b35565b61037a565b005b6060603680546101cf90610b4e565b80601f01602080910402602001604051908101604052809291908181526020018280546101fb90610b4e565b80156102485780601f1061021d57610100808354040283529160200191610248565b820191906000526020600020905b81548152906001019060200180831161022b57829003601f168201915b5050505050905090565b6000336102608185856104e6565b60019150505b92915050565b60003361027a85828561060a565b610285858585610684565b506001949350505050565b6000336102608185856102a3838361034f565b6102ad9190610b9f565b6104e6565b6060603780546101cf90610b4e565b600033816102cf828661034f565b9050838110156103345760405162461bcd60e51b815260206004820152602560248201527f45524332303a2064656372656173656420616c6c6f77616e63652062656c6f77604482015264207a65726f60d81b60648201526084015b60405180910390fd5b61028582868684036104e6565b600033610260818585610684565b6001600160a01b03918216600090815260346020908152604080832093909416825291909152205490565b600054610100900460ff161580801561039a5750600054600160ff909116105b806103b45750303b1580156103b4575060005460ff166001145b6104175760405162461bcd60e51b815260206004820152602e60248201527f496e697469616c697a61626c653a20636f6e747261637420697320616c72656160448201526d191e481a5b9a5d1a585b1a5e995960921b606482015260840161032b565b6000805460ff19166001179055801561043a576000805461ff0019166101001790555b61047d6040518060400160405280600681526020016556595249534560d01b815250604051806040016040528060038152602001622b2ca960e91b81525061082f565b61049c3361048d6012600a610c9b565b6104979085610caa565b610860565b80156104e2576000805461ff0019169055604051600181527f7f26b83ff96e1f2b6a682f133852f6798a09c465da95921460cefb38474024989060200160405180910390a15b5050565b6001600160a01b0383166105485760405162461bcd60e51b8152602060048201526024808201527f45524332303a20617070726f76652066726f6d20746865207a65726f206164646044820152637265737360e01b606482015260840161032b565b6001600160a01b0382166105a95760405162461bcd60e51b815260206004820152602260248201527f45524332303a20617070726f766520746f20746865207a65726f206164647265604482015261737360f01b606482015260840161032b565b6001600160a01b0383811660008181526034602090815260408083209487168084529482529182902085905590518481527f8c5be1e5ebec7d5bd14f71427d1e84f3dd0314c0f7b2291e5b200ac8c7c3b925910160405180910390a3505050565b6000610616848461034f565b9050600019811461067e57818110156106715760405162461bcd60e51b815260206004820152601d60248201527f45524332303a20696e73756666696369656e7420616c6c6f77616e6365000000604482015260640161032b565b61067e84848484036104e6565b50505050565b6001600160a01b0383166106e85760405162461bcd60e51b815260206004820152602560248201527f45524332303a207472616e736665722066726f6d20746865207a65726f206164604482015264647265737360d81b606482015260840161032b565b6001600160a01b03821661074a5760405162461bcd60e51b815260206004820152602360248201527f45524332303a207472616e7366657220746f20746865207a65726f206164647260448201526265737360e81b606482015260840161032b565b6001600160a01b038316600090815260336020526040902054818110156107c25760405162461bcd60e51b815260206004820152602660248201527f45524332303a207472616e7366657220616d6f756e7420657863656564732062604482015265616c616e636560d01b606482015260840161032b565b6001600160a01b0380851660008181526033602052604080822086860390559286168082529083902080548601905591517fddf252ad1be2c89b69c2b068fc378daa952ba7f163c4a11628f55a4df523b3ef906108229086815260200190565b60405180910390a361067e565b600054610100900460ff166108565760405162461bcd60e51b815260040161032b90610cc9565b6104e28282610926565b6001600160a01b0382166108b65760405162461bcd60e51b815260206004820152601f60248201527f45524332303a206d696e7420746f20746865207a65726f206164647265737300604482015260640161032b565b80603560008282546108c89190610b9f565b90915550506001600160a01b0382166000818152603360209081526040808320805486019055518481527fddf252ad1be2c89b69c2b068fc378daa952ba7f163c4a11628f55a4df523b3ef910160405180910390a35050565b505050565b600054610100900460ff1661094d5760405162461bcd60e51b815260040161032b90610cc9565b8151610960906036906020850190610970565b5080516109219060379060208401905b82805461097c90610b4e565b90600052602060002090601f01602090048101928261099e57600085556109e4565b82601f106109b757805160ff19168380011785556109e4565b828001600101855582156109e4579182015b828111156109e45782518255916020019190600101906109c9565b506109f09291506109f4565b5090565b5b808211156109f057600081556001016109f5565b600060208083528351808285015260005b81811015610a3657858101830151858201604001528201610a1a565b81811115610a48576000604083870101525b50601f01601f1916929092016040019392505050565b80356001600160a01b0381168114610a7557600080fd5b919050565b60008060408385031215610a8d57600080fd5b610a9683610a5e565b946020939093013593505050565b600080600060608486031215610ab957600080fd5b610ac284610a5e565b9250610ad060208501610a5e565b9150604084013590509250925092565b600060208284031215610af257600080fd5b610afb82610a5e565b9392505050565b60008060408385031215610b1557600080fd5b610b1e83610a5e565b9150610b2c60208401610a5e565b90509250929050565b600060208284031215610b4757600080fd5b5035919050565b600181811c90821680610b6257607f821691505b60208210811415610b8357634e487b7160e01b600052602260045260246000fd5b50919050565b634e487b7160e01b600052601160045260246000fd5b60008219821115610bb257610bb2610b89565b500190565b600181815b80851115610bf2578160001904821115610bd857610bd8610b89565b80851615610be557918102915b93841c9390800290610bbc565b509250929050565b600082610c0957506001610266565b81610c1657506000610266565b8160018114610c2c5760028114610c3657610c52565b6001915050610266565b60ff841115610c4757610c47610b89565b50506001821b610266565b5060208310610133831016604e8410600b8410161715610c75575081810a610266565b610c7f8383610bb7565b8060001904821115610c9357610c93610b89565b029392505050565b6000610afb60ff841683610bfa565b6000816000190483118215151615610cc457610cc4610b89565b500290565b6020808252602b908201527f496e697469616c697a61626c653a20636f6e7472616374206973206e6f74206960408201526a6e697469616c697a696e6760a81b60608201526080019056fea26469706673582212207fd9dfb42623475a8226f29e84a8b4b66b2fbcb86a2e2c46ff0fab23ae1b8d6b64736f6c63430008090033",
  "linkReferences": {},
  "deployedLinkReferences": {}
}